{
  "contractName": "OathKeeper",
  "abi": [
    {
      "inputs": [],
      "stateMutability": "payable",
      "type": "constructor",
      "payable": true
    },
    {
      "anonymous": false,
      "inputs": [
        {
          "indexed": true,
          "internalType": "uint256",
          "name": "milestoneId",
          "type": "uint256"
        }
      ],
      "name": "confirmationsComplete",
      "type": "event"
    },
    {
      "anonymous": false,
      "inputs": [
        {
          "indexed": true,
          "internalType": "uint256",
          "name": "oathId",
          "type": "uint256"
        }
      ],
      "name": "milestoneCreatedForOath",
      "type": "event"
    },
    {
      "anonymous": false,
      "inputs": [
        {
          "indexed": true,
          "internalType": "uint256",
          "name": "oathid",
          "type": "uint256"
        }
      ],
      "name": "oathCreated",
      "type": "event"
    },
    {
      "anonymous": false,
      "inputs": [
        {
          "indexed": false,
          "internalType": "address",
          "name": "oathGiver",
          "type": "address"
        },
        {
          "indexed": true,
          "internalType": "uint256",
          "name": "oathid",
          "type": "uint256"
        },
        {
          "indexed": true,
          "internalType": "uint256",
          "name": "milestoneId",
          "type": "uint256"
        }
      ],
      "name": "oathGiverMarkMilestone",
      "type": "event"
    },
    {
      "anonymous": false,
      "inputs": [
        {
          "indexed": false,
          "internalType": "address",
          "name": "oathTaker",
          "type": "address"
        },
        {
          "indexed": true,
          "internalType": "uint256",
          "name": "oathid",
          "type": "uint256"
        },
        {
          "indexed": true,
          "internalType": "uint256",
          "name": "milestoneId",
          "type": "uint256"
        }
      ],
      "name": "oathTakerMarkMilestone",
      "type": "event"
    },
    {
      "anonymous": false,
      "inputs": [
        {
          "indexed": false,
          "internalType": "address",
          "name": "recipient",
          "type": "address"
        },
        {
          "indexed": false,
          "internalType": "uint256",
          "name": "amount",
          "type": "uint256"
        }
      ],
      "name": "recipientCredited",
      "type": "event"
    },
    {
      "anonymous": false,
      "inputs": [
        {
          "indexed": true,
          "internalType": "address",
          "name": "recipient",
          "type": "address"
        },
        {
          "indexed": true,
          "internalType": "uint256",
          "name": "amount",
          "type": "uint256"
        }
      ],
      "name": "withdrawalMade",
      "type": "event"
    },
    {
      "stateMutability": "payable",
      "type": "fallback",
      "payable": true
    },
    {
      "inputs": [
        {
          "internalType": "uint256",
          "name": "",
          "type": "uint256"
        },
        {
          "internalType": "uint256",
          "name": "",
          "type": "uint256"
        }
      ],
      "name": "milestones",
      "outputs": [
        {
          "internalType": "string",
          "name": "milestoneBody",
          "type": "string"
        },
        {
          "internalType": "uint256",
          "name": "confirmations",
          "type": "uint256"
        },
        {
          "internalType": "uint256",
          "name": "confirmationsSoFar",
          "type": "uint256"
        },
        {
          "internalType": "uint256",
          "name": "milestoneValue",
          "type": "uint256"
        },
        {
          "internalType": "uint256",
          "name": "milestoneCreated",
          "type": "uint256"
        },
        {
          "internalType": "uint256",
          "name": "milestoneDeadline",
          "type": "uint256"
        },
        {
          "internalType": "bool",
          "name": "oathGiverVerified",
          "type": "bool"
        },
        {
          "internalType": "bool",
          "name": "oathTakerVerified",
          "type": "bool"
        },
        {
          "internalType": "bool",
          "name": "completed",
          "type": "bool"
        }
      ],
      "stateMutability": "view",
      "type": "function",
      "constant": true
    },
    {
      "inputs": [
        {
          "internalType": "uint256",
          "name": "",
          "type": "uint256"
        }
      ],
      "name": "oaths",
      "outputs": [
        {
          "internalType": "uint256",
          "name": "Id",
          "type": "uint256"
        },
        {
          "internalType": "string",
          "name": "body",
          "type": "string"
        },
        {
          "internalType": "uint256",
          "name": "timeCreated",
          "type": "uint256"
        },
        {
          "internalType": "uint256",
          "name": "deadline",
          "type": "uint256"
        },
        {
          "internalType": "uint256",
          "name": "oathValue",
          "type": "uint256"
        },
        {
          "internalType": "address payable",
          "name": "oathGiver",
          "type": "address"
        },
        {
          "internalType": "address payable",
          "name": "oathTaker",
          "type": "address"
        },
        {
          "internalType": "address payable",
          "name": "defaultsRecipient",
          "type": "address"
        },
        {
          "internalType": "address payable",
          "name": "completionRecipient",
          "type": "address"
        },
        {
          "internalType": "bool",
          "name": "useVerifiers",
          "type": "bool"
        }
      ],
      "stateMutability": "view",
      "type": "function",
      "constant": true
    },
    {
      "inputs": [],
      "name": "owner",
      "outputs": [
        {
          "internalType": "address payable",
          "name": "",
          "type": "address"
        }
      ],
      "stateMutability": "view",
      "type": "function",
      "constant": true
    },
    {
      "inputs": [
        {
          "internalType": "address",
          "name": "",
          "type": "address"
        }
      ],
      "name": "pendingWithdrawals",
      "outputs": [
        {
          "internalType": "uint256",
          "name": "",
          "type": "uint256"
        }
      ],
      "stateMutability": "view",
      "type": "function",
      "constant": true
    },
    {
      "inputs": [],
      "name": "stopped",
      "outputs": [
        {
          "internalType": "bool",
          "name": "",
          "type": "bool"
        }
      ],
      "stateMutability": "view",
      "type": "function",
      "constant": true
    },
    {
      "stateMutability": "payable",
      "type": "receive",
      "payable": true
    },
    {
      "inputs": [],
      "name": "pauseContract",
      "outputs": [],
      "stateMutability": "nonpayable",
      "type": "function"
    },
    {
      "inputs": [],
      "name": "startContract",
      "outputs": [],
      "stateMutability": "nonpayable",
      "type": "function"
    },
    {
      "inputs": [
        {
          "internalType": "uint256",
          "name": "_deadline",
          "type": "uint256"
        },
        {
          "internalType": "address payable",
          "name": "_oathTaker",
          "type": "address"
        },
        {
          "internalType": "address payable",
          "name": "_defaultsRecipient",
          "type": "address"
        },
        {
          "internalType": "address payable",
          "name": "_completionRecipient",
          "type": "address"
        },
        {
          "internalType": "string",
          "name": "_body",
          "type": "string"
        }
      ],
      "name": "createOath",
      "outputs": [
        {
          "internalType": "uint256",
          "name": "_oathId",
          "type": "uint256"
        }
      ],
      "stateMutability": "nonpayable",
      "type": "function"
    },
    {
      "inputs": [],
      "name": "getOathCount",
      "outputs": [
        {
          "internalType": "uint256",
          "name": "",
          "type": "uint256"
        }
      ],
      "stateMutability": "view",
      "type": "function",
      "constant": true
    },
    {
      "inputs": [
        {
          "internalType": "uint256",
          "name": "_oathId",
          "type": "uint256"
        },
        {
          "internalType": "string",
          "name": "_milestoneBody",
          "type": "string"
        },
        {
          "internalType": "uint8",
          "name": "_confirmations",
          "type": "uint8"
        },
        {
          "internalType": "uint256",
          "name": "_milestoneDeadline",
          "type": "uint256"
        }
      ],
      "name": "addMilestoneToOath",
      "outputs": [
        {
          "internalType": "uint256",
          "name": "",
          "type": "uint256"
        }
      ],
      "stateMutability": "payable",
      "type": "function",
      "payable": true
    },
    {
      "inputs": [
        {
          "internalType": "uint256",
          "name": "_oathId",
          "type": "uint256"
        },
        {
          "internalType": "uint256",
          "name": "_milestoneId",
          "type": "uint256"
        }
      ],
      "name": "oathGiverMarkMilestoneAsDone",
      "outputs": [
        {
          "internalType": "uint256",
          "name": "",
          "type": "uint256"
        },
        {
          "internalType": "uint256",
          "name": "",
          "type": "uint256"
        }
      ],
      "stateMutability": "nonpayable",
      "type": "function"
    },
    {
      "inputs": [
        {
          "internalType": "uint256",
          "name": "_oathId",
          "type": "uint256"
        },
        {
          "internalType": "uint256",
          "name": "_milestoneId",
          "type": "uint256"
        }
      ],
      "name": "oathTakerMarkMilestoneAsDone",
      "outputs": [
        {
          "internalType": "uint256",
          "name": "",
          "type": "uint256"
        },
        {
          "internalType": "uint256",
          "name": "",
          "type": "uint256"
        }
      ],
      "stateMutability": "nonpayable",
      "type": "function"
    },
    {
      "inputs": [],
      "name": "withdrawFunds",
      "outputs": [
        {
          "internalType": "uint256",
          "name": "",
          "type": "uint256"
        }
      ],
      "stateMutability": "nonpayable",
      "type": "function"
    }
  ],
  "bytecode": "0x6080604052600080556000600160006101000a81548160ff021916908315150217905550336001806101000a81548173ffffffffffffffffffffffffffffffffffffffff021916908373ffffffffffffffffffffffffffffffffffffffff1602179055506124a3806100726000396000f3fe6080604052600436106100c65760003560e01c80635fb02f4d1161007f578063875120fb11610059578063875120fb146105195780638da5cb5b1461065f57806390322590146106a0578063f3f4370314610700576100cd565b80635fb02f4d14610475578063743888d01461048c57806375f12b21146104ec576100cd565b806305fb3451146100cf578063090f25311461021c5780631c376c631461024757806324600fc31461034357806337130ec21461036e578063439766ce1461045e576100cd565b366100cd57005b005b3480156100db57600080fd5b50610108600480360360208110156100f257600080fd5b8101908080359060200190929190505050610765565b604051808b8152602001806020018a81526020018981526020018881526020018773ffffffffffffffffffffffffffffffffffffffff1681526020018673ffffffffffffffffffffffffffffffffffffffff1681526020018573ffffffffffffffffffffffffffffffffffffffff1681526020018473ffffffffffffffffffffffffffffffffffffffff168152602001831515815260200182810382528b818151815260200191508051906020019080838360005b838110156101d85780820151818401526020810190506101bd565b50505050905090810190601f1680156102055780820380516001836020036101000a031916815260200191505b509b50505050505050505050505060405180910390f35b34801561022857600080fd5b506102316108de565b6040518082815260200191505060405180910390f35b34801561025357600080fd5b5061028a6004803603604081101561026a57600080fd5b8101908080359060200190929190803590602001909291905050506108e7565b60405180806020018a815260200189815260200188815260200187815260200186815260200185151581526020018415158152602001831515815260200182810382528b818151815260200191508051906020019080838360005b838110156103005780820151818401526020810190506102e5565b50505050905090810190601f16801561032d5780820380516001836020036101000a031916815260200191505b509a505050505050505050505060405180910390f35b34801561034f57600080fd5b50610358610a0e565b6040518082815260200191505060405180910390f35b6104486004803603608081101561038457600080fd5b8101908080359060200190929190803590602001906401000000008111156103ab57600080fd5b8201836020820111156103bd57600080fd5b803590602001918460018302840111640100000000831117156103df57600080fd5b91908080601f016020809104026020016040519081016040528093929190818152602001838380828437600081840152601f19601f820116905080830192505050505050509192919290803560ff16906020019092919080359060200190929190505050610c48565b6040518082815260200191505060405180910390f35b34801561046a57600080fd5b506104736110c9565b005b34801561048157600080fd5b5061048a6111a8565b005b34801561049857600080fd5b506104cf600480360360408110156104af57600080fd5b810190808035906020019092919080359060200190929190505050611288565b604051808381526020018281526020019250505060405180910390f35b3480156104f857600080fd5b506105016117be565b60405180821515815260200191505060405180910390f35b34801561052557600080fd5b50610649600480360360a081101561053c57600080fd5b8101908080359060200190929190803573ffffffffffffffffffffffffffffffffffffffff169060200190929190803573ffffffffffffffffffffffffffffffffffffffff169060200190929190803573ffffffffffffffffffffffffffffffffffffffff169060200190929190803590602001906401000000008111156105c357600080fd5b8201836020820111156105d557600080fd5b803590602001918460018302840111640100000000831117156105f757600080fd5b91908080601f016020809104026020016040519081016040528093929190818152602001838380828437600081840152601f19601f8201169050808301925050505050505091929192905050506117d1565b6040518082815260200191505060405180910390f35b34801561066b57600080fd5b50610674611b06565b604051808273ffffffffffffffffffffffffffffffffffffffff16815260200191505060405180910390f35b3480156106ac57600080fd5b506106e3600480360360408110156106c357600080fd5b810190808035906020019092919080359060200190929190505050611b2a565b604051808381526020018281526020019250505060405180910390f35b34801561070c57600080fd5b5061074f6004803603602081101561072357600080fd5b81019080803573ffffffffffffffffffffffffffffffffffffffff169060200190929190505050612187565b6040518082815260200191505060405180910390f35b6003602052806000526040600020600091509050806000015490806001018054600181600116156101000203166002900480601f0160208091040260200160405190810160405280929190818152602001828054600181600116156101000203166002900480156108175780601f106107ec57610100808354040283529160200191610817565b820191906000526020600020905b8154815290600101906020018083116107fa57829003601f168201915b5050505050908060020154908060030154908060040154908060050160009054906101000a900473ffffffffffffffffffffffffffffffffffffffff16908060060160009054906101000a900473ffffffffffffffffffffffffffffffffffffffff16908060070160009054906101000a900473ffffffffffffffffffffffffffffffffffffffff16908060080160009054906101000a900473ffffffffffffffffffffffffffffffffffffffff16908060080160149054906101000a900460ff1690508a565b60008054905090565b6004602052816000526040600020818154811061090057fe5b906000526020600020906007020160009150915050806000018054600181600116156101000203166002900480601f0160208091040260200160405190810160405280929190818152602001828054600181600116156101000203166002900480156109ad5780601f10610982576101008083540402835291602001916109ad565b820191906000526020600020905b81548152906001019060200180831161099057829003601f168201915b5050505050908060010154908060020154908060030154908060040154908060050154908060060160009054906101000a900460ff16908060060160019054906101000a900460ff16908060060160029054906101000a900460ff16905089565b6000336000600260008373ffffffffffffffffffffffffffffffffffffffff1673ffffffffffffffffffffffffffffffffffffffff168152602001908152602001600020541415610aaa576040517f08c379a000000000000000000000000000000000000000000000000000000000815260040180806020018281038252602481526020018061244a6024913960400191505060405180910390fd5b600160009054906101000a900460ff16610b2c576040517f08c379a00000000000000000000000000000000000000000000000000000000081526004018080602001828103825260198152602001807f436f6e747261637420657865637574696f6e207061757365640000000000000081525060200191505060405180910390fd5b6000600260003373ffffffffffffffffffffffffffffffffffffffff1673ffffffffffffffffffffffffffffffffffffffff1681526020019081526020016000205490506000600260003373ffffffffffffffffffffffffffffffffffffffff1673ffffffffffffffffffffffffffffffffffffffff168152602001908152602001600020819055503373ffffffffffffffffffffffffffffffffffffffff166108fc829081150290604051600060405180830381858888f19350505050158015610bfb573d6000803e3d6000fd5b50803373ffffffffffffffffffffffffffffffffffffffff167f1645bc385806bd472276f1f751ecfe0ee20d0ffd7d8ee85761562bdb01e54e6a60405160405180910390a3809250505090565b6000600160009054906101000a900460ff1615610ccd576040517f08c379a00000000000000000000000000000000000000000000000000000000081526004018080602001828103825260118152602001807f436f6e747261637420696e61637469766500000000000000000000000000000081525060200191505060405180910390fd5b84600060036000838152602001908152602001600020600201541415610d5b576040517f08c379a00000000000000000000000000000000000000000000000000000000081526004018080602001828103825260138152602001807f4f61746820646f6573206e6f742065786973740000000000000000000000000081525060200191505060405180910390fd5b3334808273ffffffffffffffffffffffffffffffffffffffff16311015610dcd576040517f08c379a000000000000000000000000000000000000000000000000000000000815260040180806020018281038252603e8152602001806123c4603e913960400191505060405180910390fd5b33886003600082815260200190815260200160002060050160009054906101000a900473ffffffffffffffffffffffffffffffffffffffff1673ffffffffffffffffffffffffffffffffffffffff168273ffffffffffffffffffffffffffffffffffffffff1614610e89576040517f08c379a00000000000000000000000000000000000000000000000000000000081526004018080602001828103825260248152602001806124266024913960400191505060405180910390fd5b60018054906101000a900473ffffffffffffffffffffffffffffffffffffffff1673ffffffffffffffffffffffffffffffffffffffff166108fc349081150290604051600060405180830381858888f19350505050158015610eef573d6000803e3d6000fd5b50610ef8612227565b6040518061012001604052808b81526020018a60ff16815260200160008152602001348152602001428152602001610f398a4261219f90919063ffffffff16565b8152602001600015158152602001600015158152602001600015158152509050600460008c81526020019081526020016000208190806001815401808255809150506001900390600052602060002090600702016000909190919091506000820151816000019080519060200190610fb2929190612279565b506020820151816001015560408201518160020155606082015181600301556080820151816004015560a0820151816005015560c08201518160060160006101000a81548160ff02191690831515021790555060e08201518160060160016101000a81548160ff0219169083151502179055506101008201518160060160026101000a81548160ff021916908315150217905550505061107134600360008e81526020019081526020016000206004015461219f90919063ffffffff16565b600360008d8152602001908152602001600020600401819055508a7f04bf27135073be5940189302358f5cc1cc8d28169ef8a75dff8b469a5011006660405160405180910390a28a9650505050505050949350505050565b3360018054906101000a900473ffffffffffffffffffffffffffffffffffffffff1673ffffffffffffffffffffffffffffffffffffffff168173ffffffffffffffffffffffffffffffffffffffff161461118b576040517f08c379a000000000000000000000000000000000000000000000000000000000815260040180806020018281038252600c8152602001807f556e617574686f7269736564000000000000000000000000000000000000000081525060200191505060405180910390fd5b60018060006101000a81548160ff02191690831515021790555050565b3360018054906101000a900473ffffffffffffffffffffffffffffffffffffffff1673ffffffffffffffffffffffffffffffffffffffff168173ffffffffffffffffffffffffffffffffffffffff161461126a576040517f08c379a000000000000000000000000000000000000000000000000000000000815260040180806020018281038252600c8152602001807f556e617574686f7269736564000000000000000000000000000000000000000081525060200191505060405180910390fd5b6000600160006101000a81548160ff02191690831515021790555050565b600080600160009054906101000a900460ff161561130e576040517f08c379a00000000000000000000000000000000000000000000000000000000081526004018080602001828103825260118152602001807f436f6e747261637420696e61637469766500000000000000000000000000000081525060200191505060405180910390fd5b8360006003600083815260200190815260200160002060020154141561139c576040517f08c379a00000000000000000000000000000000000000000000000000000000081526004018080602001828103825260138152602001807f4f61746820646f6573206e6f742065786973740000000000000000000000000081525060200191505060405180910390fd5b848460006004600084815260200190815260200160002082815481106113be57fe5b9060005260206000209060070201600401541415611444576040517f08c379a00000000000000000000000000000000000000000000000000000000081526004018080602001828103825260188152602001807f4d696c6573746f6e6520646f6573206e6f74206578697374000000000000000081525060200191505060405180910390fd5b33876003600082815260200190815260200160002060060160009054906101000a900473ffffffffffffffffffffffffffffffffffffffff1673ffffffffffffffffffffffffffffffffffffffff168273ffffffffffffffffffffffffffffffffffffffff1614611500576040517f08c379a00000000000000000000000000000000000000000000000000000000081526004018080602001828103825260248152602001806124026024913960400191505060405180910390fd5b6000600460008b8152602001908152602001600020898154811061152057fe5b906000526020600020906007020190506115486001826002015461219f90919063ffffffff16565b816002018190555060018160060160016101000a81548160ff02191690831515021790555080600101548160020154141561175c5760018160060160026101000a81548160ff021916908315150217905550611626816003015460026000600360008f815260200190815260200160002060080160009054906101000a900473ffffffffffffffffffffffffffffffffffffffff1673ffffffffffffffffffffffffffffffffffffffff1673ffffffffffffffffffffffffffffffffffffffff1681526020019081526020016000205461219f90919063ffffffff16565b60026000600360008e815260200190815260200160002060080160009054906101000a900473ffffffffffffffffffffffffffffffffffffffff1673ffffffffffffffffffffffffffffffffffffffff1673ffffffffffffffffffffffffffffffffffffffff16815260200190815260200160002081905550887f31433da623b4b78828c65c4f378dda3104c1ede841919f3a3c229f7ed91ef4e160405160405180910390a27fb729a3b42166d500abfcf91543fc2db14edb3e4d8753c07296e5e78624c500c9600360008c815260200190815260200160002060080160009054906101000a900473ffffffffffffffffffffffffffffffffffffffff168260030154604051808373ffffffffffffffffffffffffffffffffffffffff1681526020018281526020019250505060405180910390a15b888a7f63343b1ee44989e445910ebe5e700149a84279e2482a635a7d8b16fa2c9c5dd033604051808273ffffffffffffffffffffffffffffffffffffffff16815260200191505060405180910390a38989975097505050505050509250929050565b600160009054906101000a900460ff1681565b6000600160009054906101000a900460ff1615611856576040517f08c379a00000000000000000000000000000000000000000000000000000000081526004018080602001828103825260118152602001807f436f6e747261637420696e61637469766500000000000000000000000000000081525060200191505060405180910390fd5b60005490506118636122f9565b604051806101400160405280838152602001848152602001428152602001611894894261219f90919063ffffffff16565b8152602001600081526020013373ffffffffffffffffffffffffffffffffffffffff1681526020018773ffffffffffffffffffffffffffffffffffffffff1681526020018673ffffffffffffffffffffffffffffffffffffffff1681526020018573ffffffffffffffffffffffffffffffffffffffff1681526020016000151581525090508060036000848152602001908152602001600020600082015181600001556020820151816001019080519060200190611953929190612279565b5060408201518160020155606082015181600301556080820151816004015560a08201518160050160006101000a81548173ffffffffffffffffffffffffffffffffffffffff021916908373ffffffffffffffffffffffffffffffffffffffff16021790555060c08201518160060160006101000a81548173ffffffffffffffffffffffffffffffffffffffff021916908373ffffffffffffffffffffffffffffffffffffffff16021790555060e08201518160070160006101000a81548173ffffffffffffffffffffffffffffffffffffffff021916908373ffffffffffffffffffffffffffffffffffffffff1602179055506101008201518160080160006101000a81548173ffffffffffffffffffffffffffffffffffffffff021916908373ffffffffffffffffffffffffffffffffffffffff1602179055506101208201518160080160146101000a81548160ff021916908315150217905550905050611ac9600160005461219f90919063ffffffff16565b600081905550817ff853b6517ea80f71e0ee26f85136651f42539afc8864349864567db7c42b414960405160405180910390a25095945050505050565b60018054906101000a900473ffffffffffffffffffffffffffffffffffffffff1681565b600080600160009054906101000a900460ff1615611bb0576040517f08c379a00000000000000000000000000000000000000000000000000000000081526004018080602001828103825260118152602001807f436f6e747261637420696e61637469766500000000000000000000000000000081525060200191505060405180910390fd5b83600060036000838152602001908152602001600020600201541415611c3e576040517f08c379a00000000000000000000000000000000000000000000000000000000081526004018080602001828103825260138152602001807f4f61746820646f6573206e6f742065786973740000000000000000000000000081525060200191505060405180910390fd5b84846000600460008481526020019081526020016000208281548110611c6057fe5b9060005260206000209060070201600401541415611ce6576040517f08c379a00000000000000000000000000000000000000000000000000000000081526004018080602001828103825260188152602001807f4d696c6573746f6e6520646f6573206e6f74206578697374000000000000000081525060200191505060405180910390fd5b33876003600082815260200190815260200160002060050160009054906101000a900473ffffffffffffffffffffffffffffffffffffffff1673ffffffffffffffffffffffffffffffffffffffff168273ffffffffffffffffffffffffffffffffffffffff1614611da2576040517f08c379a00000000000000000000000000000000000000000000000000000000081526004018080602001828103825260248152602001806124266024913960400191505060405180910390fd5b611de56001600460008c81526020019081526020016000208a81548110611dc557fe5b90600052602060002090600702016002015461219f90919063ffffffff16565b600460008b81526020019081526020016000208981548110611e0357fe5b9060005260206000209060070201600201819055506001600460008b81526020019081526020016000208981548110611e3857fe5b906000526020600020906007020160060160006101000a81548160ff021916908315150217905550600460008a81526020019081526020016000208881548110611e7e57fe5b906000526020600020906007020160010154600460008b81526020019081526020016000208981548110611eae57fe5b9060005260206000209060070201600201541415612126576001600460008b81526020019081526020016000208981548110611ee657fe5b906000526020600020906007020160060160026101000a81548160ff021916908315150217905550611fc5600460008b81526020019081526020016000208981548110611f2f57fe5b90600052602060002090600702016003015460026000600360008e815260200190815260200160002060080160009054906101000a900473ffffffffffffffffffffffffffffffffffffffff1673ffffffffffffffffffffffffffffffffffffffff1673ffffffffffffffffffffffffffffffffffffffff1681526020019081526020016000205461219f90919063ffffffff16565b60026000600360008d815260200190815260200160002060080160009054906101000a900473ffffffffffffffffffffffffffffffffffffffff1673ffffffffffffffffffffffffffffffffffffffff1673ffffffffffffffffffffffffffffffffffffffff16815260200190815260200160002081905550877f31433da623b4b78828c65c4f378dda3104c1ede841919f3a3c229f7ed91ef4e160405160405180910390a27fb729a3b42166d500abfcf91543fc2db14edb3e4d8753c07296e5e78624c500c9600360008b815260200190815260200160002060080160009054906101000a900473ffffffffffffffffffffffffffffffffffffffff16600460008c81526020019081526020016000208a815481106120e157fe5b906000526020600020906007020160030154604051808373ffffffffffffffffffffffffffffffffffffffff1681526020018281526020019250505060405180910390a15b87897fb7bbc182939fc2b8d0fe773fc7180f8d2ead413fe2f27ecd7a6fb8ad263bed2033604051808273ffffffffffffffffffffffffffffffffffffffff16815260200191505060405180910390a388889650965050505050509250929050565b60026020528060005260406000206000915090505481565b60008082840190508381101561221d576040517f08c379a000000000000000000000000000000000000000000000000000000000815260040180806020018281038252601b8152602001807f536166654d6174683a206164646974696f6e206f766572666c6f77000000000081525060200191505060405180910390fd5b8091505092915050565b6040518061012001604052806060815260200160008152602001600081526020016000815260200160008152602001600081526020016000151581526020016000151581526020016000151581525090565b828054600181600116156101000203166002900490600052602060002090601f016020900481019282601f106122ba57805160ff19168380011785556122e8565b828001600101855582156122e8579182015b828111156122e75782518255916020019190600101906122cc565b5b5090506122f591906123a6565b5090565b6040518061014001604052806000815260200160608152602001600081526020016000815260200160008152602001600073ffffffffffffffffffffffffffffffffffffffff168152602001600073ffffffffffffffffffffffffffffffffffffffff168152602001600073ffffffffffffffffffffffffffffffffffffffff168152602001600073ffffffffffffffffffffffffffffffffffffffff1681526020016000151581525090565b5b808211156123bf5760008160009055506001016123a7565b509056fe596f75722062616c616e636520697320696e73756666696369656e7420666f72206372656174696e67206571756976616c656e74206d696c6573746f6e65416363657373207265737472696374656420746f206f6e6c79204f6174682d54616b6572416363657373207265737472696374656420746f206f6e6c79204f6174682d4769766572526563697069656e7420686173206e6f2070656e64696e67207769746864726177616c73a2646970667358221220f35c8ce7d7a798f2a397830fe7bd23337d84d4d2f09622d56dc2d63b4b480ce264736f6c634300060c0033",
  "immutableReferences": {},
  "source": "// SPDX-License-Identifier: MIT\npragma solidity >=0.4.0 <0.8.0;\nimport \"@openzeppelin/contracts/math/SafeMath.sol\";\n\n/// @title OathKeeper contract\n/// @author Ogundiya O. Caleb\n/// @notice This contract gives you the ability to create oaths and its milestone and also manage withdrawals\n/// @dev All function calls are currently implemented without side effects\n\ncontract OathKeeper{\n\n    using SafeMath for uint256;\n\n    uint private oathCount = 0;\n\n    bool public stopped = false;\n\n    address payable public owner;\n\n    mapping (address => uint) public pendingWithdrawals;\n\n    mapping(uint => Oath) public oaths;\n\n    struct Oath {\n        uint Id;\n        string body;\n        uint timeCreated;\n        uint deadline;\n        uint oathValue;\n        address payable oathGiver;\n        address payable oathTaker;\n        address payable defaultsRecipient;\n        address payable completionRecipient;\n        bool useVerifiers;\n    }\n\n    mapping(uint => Milestone[]) public milestones;\n\n    struct Milestone {\n        // oathId acts as foreignkey to link milestone to oath\n        string milestoneBody;\n        uint confirmations;\n        uint confirmationsSoFar;\n        uint milestoneValue;\n        uint milestoneCreated;\n        uint milestoneDeadline;\n        bool oathGiverVerified;\n        bool oathTakerVerified;\n        bool completed;\n    }\n\n    /**\n     * MODIFIERS\n    */\n\n    modifier onlyOathGiver(address _oathGiver, uint _oathId){\n        require(_oathGiver == oaths[_oathId].oathGiver, \"Access restricted to only Oath-Giver\");\n        _;\n    }\n\n    modifier onlyOathTaker(address _oathTaker, uint _oathId){\n        require(_oathTaker == oaths[_oathId].oathTaker, \"Access restricted to only Oath-Taker\");\n        _;\n    }\n\n    modifier oathExists(uint _oathId){\n        require(oaths[_oathId].timeCreated != 0, \"Oath does not exist\");\n        _;\n    }\n\n    modifier milestoneExists(uint _oathId, uint _milestoneId){\n        require(milestones[_oathId][_milestoneId].milestoneCreated != 0, \"Milestone does not exist\");\n        _;\n    }\n\n    modifier senderHasPendingWithdrawals(address _recipient){\n        require(pendingWithdrawals[_recipient] != 0, \"Recipient has no pending withdrawals\");\n        _;\n    }\n\n    modifier hasEnoughToCreateMilestone(address oathGiver, uint _milestoneValue){\n        require(oathGiver.balance >= _milestoneValue, \"Your balance is insufficient for creating equivalent milestone\");\n        _;\n    }\n\n    modifier onlyOwner(address _sender){\n        require(_sender == owner, \"Unauthorised\");\n        _;\n    }\n\n    modifier notEmergency {\n        require(!stopped, \"Contract inactive\");\n        _;\n    }\n\n    modifier emergency {\n        require(stopped, \"Contract execution paused\");\n        _;\n    }\n\n\n    /**\n     * EVENTS\n    */\n    event oathCreated(uint indexed oathid);\n\n    event milestoneCreatedForOath(uint indexed oathId);\n\n    event oathGiverMarkMilestone(address oathGiver, uint indexed oathid, uint indexed milestoneId);\n\n    event oathTakerMarkMilestone(address oathTaker, uint indexed oathid, uint indexed milestoneId);\n\n    event withdrawalMade(address indexed recipient, uint indexed amount);\n\n    event confirmationsComplete(uint indexed milestoneId);\n\n    event recipientCredited(address recipient, uint amount);\n\n\n    /**\n     * METHODS\n     */\n\n    constructor() payable public{\n        owner = msg.sender;\n    }\n\n    function pauseContract() public onlyOwner(msg.sender){\n        stopped = true;\n    }\n\n    function startContract() public onlyOwner(msg.sender){\n        stopped = false;\n    }\n\n    /// @notice create oath\n    /// @param _deadline When oath expires\n    /// @param _oathTaker (required) user who can mark milestone as done\n    /// @param _defaultsRecipient (required) address to pay when milestone is missed\n    /// @param _completionRecipient (required) address to pay when milestone is crushed\n    /// @param _body some description of the milestone\n    /// @return _oathId\n    function createOath(\n        uint _deadline,\n        address payable _oathTaker,\n        address payable _defaultsRecipient,\n        address payable _completionRecipient,\n        string memory _body\n    )\n    notEmergency()\n    public returns (uint _oathId)\n    {\n        _oathId = oathCount;\n        Oath memory newoath = Oath(\n            _oathId,\n            _body,\n            block.timestamp,\n            block.timestamp.add(_deadline),\n            0,\n            msg.sender,\n            _oathTaker,\n            _defaultsRecipient,\n            _completionRecipient,\n            false\n        );\n        oaths[_oathId] = newoath;\n        oathCount = oathCount.add(1);\n        emit oathCreated(_oathId);\n    }\n\n    /// @notice\n    /// @dev\n    /// @return oathCount\n    function getOathCount() public view returns (uint){\n        return oathCount;\n    }\n\n    /// @notice Add milestone to existing oath\n    /// @param _oathId The id of oath to add milestone\n    /// @return updatedOathId\n    function addMilestoneToOath(\n        uint _oathId,\n        string memory _milestoneBody,\n        uint8 _confirmations,\n        uint _milestoneDeadline\n    )\n    notEmergency()\n    public payable\n    oathExists(_oathId)\n    hasEnoughToCreateMilestone(msg.sender, msg.value)\n    onlyOathGiver(msg.sender, _oathId) returns (uint)\n    {\n        owner.transfer(msg.value);\n        Milestone memory milestone = Milestone(\n            _milestoneBody, _confirmations, 0,\n            msg.value, block.timestamp, block.timestamp.add(_milestoneDeadline),\n            false, false, false\n        );\n        milestones[_oathId].push(milestone);\n        oaths[_oathId].oathValue = oaths[_oathId].oathValue.add(msg.value);\n        emit milestoneCreatedForOath(_oathId);\n        return _oathId;\n    }\n\n    /// @notice\n    /// @dev\n    /// @param _oathId The id of oath to add milestone\n    /// @return _oathId, _milestoneId\n    function oathGiverMarkMilestoneAsDone(uint _oathId, uint _milestoneId)\n    public\n    notEmergency()\n    oathExists(_oathId)\n    milestoneExists(_oathId, _milestoneId)\n    onlyOathGiver(msg.sender, _oathId)\n    returns (uint, uint)\n    {\n        // Milestone memory milestone = milestones[_oathId][_milestoneId];\n        milestones[_oathId][_milestoneId].confirmationsSoFar = milestones[_oathId][_milestoneId].confirmationsSoFar.add(1);\n        milestones[_oathId][_milestoneId].oathGiverVerified = true;\n        if(milestones[_oathId][_milestoneId].confirmationsSoFar == milestones[_oathId][_milestoneId].confirmations){\n            // Give ether value to success recipient\n            milestones[_oathId][_milestoneId].completed = true;\n            pendingWithdrawals[oaths[_oathId].completionRecipient] = pendingWithdrawals[oaths[_oathId].completionRecipient].add(milestones[_oathId][_milestoneId].milestoneValue);\n            emit confirmationsComplete(_milestoneId);\n            emit recipientCredited(oaths[_oathId].completionRecipient, milestones[_oathId][_milestoneId].milestoneValue);\n        }\n        emit oathGiverMarkMilestone(msg.sender, _oathId, _milestoneId);\n        return(_oathId, _milestoneId);\n    }\n\n    /// @notice\n    /// @dev\n    /// @param _oathId The id of oath to add milestone\n    /// @return _oathId, _milestoneId\n    function oathTakerMarkMilestoneAsDone(uint _oathId, uint _milestoneId)\n        public\n        notEmergency()\n        oathExists(_oathId)\n        milestoneExists(_oathId, _milestoneId)\n        onlyOathTaker(msg.sender, _oathId)\n        returns (uint, uint)\n    {\n        Milestone storage milestone = milestones[_oathId][_milestoneId];\n        milestone.confirmationsSoFar = milestone.confirmationsSoFar.add(1);\n        milestone.oathTakerVerified = true;\n        if(milestone.confirmationsSoFar == milestone.confirmations){\n            // Give ether value to success recipient\n            milestone.completed = true;\n            pendingWithdrawals[oaths[_oathId].completionRecipient] = pendingWithdrawals[oaths[_oathId].completionRecipient].add(milestone.milestoneValue);\n            emit confirmationsComplete(_milestoneId);\n            emit recipientCredited(oaths[_oathId].completionRecipient, milestone.milestoneValue);\n        }\n        emit oathTakerMarkMilestone(msg.sender, _oathId, _milestoneId);\n        return(_oathId, _milestoneId);\n    }\n\n    /// @notice\n    /// @dev\n    /// @return amount The ether value sent to recipient\n    function withdrawFunds()\n        public\n        senderHasPendingWithdrawals(msg.sender)\n        emergency()\n        returns (uint)\n    {\n        uint amount = pendingWithdrawals[msg.sender];\n        // Avoid re-entrancy by zeroing amount before sending;\n        pendingWithdrawals[msg.sender] = 0;\n        msg.sender.transfer(amount);\n        emit withdrawalMade(msg.sender, amount);\n        return amount;\n    }\n\n    /// @notice Fallback function\n    fallback() external payable{}\n\n    /// @notice Fallback function\n    receive() external payable{}\n\n    // function oathVerifierMarkMilestoneAsDone(uint _oathId) public returns (uint) {\n    //     milestones[_oathId].confirmations++;\n    //     milestones[_oathId].oathGiverVerified = true;\n    // }\n\n}\n",
  "sourcePath": "/Users/mac/Desktop/caleb/Oath-Keeper/contracts/OathKeeper.sol",
  "compiler": {
    "name": "solc",
    "version": "0.6.12+commit.27d51765.Emscripten.clang"
  },
  "schemaVersion": "3.3.2",
  "updatedAt": "2020-12-07T00:28:40.367Z",
  "networkType": "ethereum",
  "devdoc": {
    "author": "Ogundiya O. Caleb",
    "details": "All function calls are currently implemented without side effects",
    "kind": "dev",
    "methods": {
      "addMilestoneToOath(uint256,string,uint8,uint256)": {
        "params": {
          "_oathId": "The id of oath to add milestone"
        },
        "returns": {
          "_0": "updatedOathId"
        }
      },
      "createOath(uint256,address,address,address,string)": {
        "params": {
          "_body": "some description of the milestone",
          "_completionRecipient": "(required) address to pay when milestone is crushed",
          "_deadline": "When oath expires",
          "_defaultsRecipient": "(required) address to pay when milestone is missed",
          "_oathTaker": "(required) user who can mark milestone as done"
        },
        "returns": {
          "_oathId": "_oathId"
        }
      },
      "getOathCount()": {
        "returns": {
          "_0": "oathCount"
        }
      },
      "oathGiverMarkMilestoneAsDone(uint256,uint256)": {
        "params": {
          "_oathId": "The id of oath to add milestone"
        },
        "returns": {
          "_0": "_oathId, _milestoneId"
        }
      },
      "oathTakerMarkMilestoneAsDone(uint256,uint256)": {
        "params": {
          "_oathId": "The id of oath to add milestone"
        },
        "returns": {
          "_0": "_oathId, _milestoneId"
        }
      },
      "withdrawFunds()": {
        "returns": {
          "_0": "amount The ether value sent to recipient"
        }
      }
    },
    "title": "OathKeeper contract",
    "version": 1
  },
  "userdoc": {
    "events": {
      "oathCreated(uint256)": {
        "notice": "EVENTS"
      }
    },
    "kind": "user",
    "methods": {
      "addMilestoneToOath(uint256,string,uint8,uint256)": {
        "notice": "Add milestone to existing oath"
      },
      "constructor": "METHODS",
      "createOath(uint256,address,address,address,string)": {
        "notice": "create oath"
      },
      "getOathCount()": {
        "notice": "@dev"
      },
      "oathGiverMarkMilestoneAsDone(uint256,uint256)": {
        "notice": "@dev"
      },
      "oathTakerMarkMilestoneAsDone(uint256,uint256)": {
        "notice": "@dev"
      },
      "withdrawFunds()": {
        "notice": "@dev"
      }
    },
    "notice": "This contract gives you the ability to create oaths and its milestone and also manage withdrawals",
    "version": 1
  }
}